:100000000C94270A0C944F0A0C944F0A0C944F0A34
:100010000C944F0A0C944F0A0C944F0A0C944F0AFC
:100020000C944F0A0C944F0A0C944F0A0C944F0AEC
:100030000C944F0A0C94870E0C944F0A0C944F0AA0
:100040000C94C9140C944F0A0C94F0110C943712B0
:100050000C944F0A0C944F0A0C944F0A0C944F0ABC
:100060000C944F0A0C944F0A00000208020402028A
:10007000020182004200FE7F06004200C2008201AF
:1000800002070302020000004080A04098208F1861
:100090008807F802880488180000F87F0810081004
:1000A0000810F83F00000000800080408020801091
:1000B000BE0EAA10AA20AA3FAA44AA44AA44BE443B
:1000C0008044804080400000000082008200427E28
:1000D000622222221222FA230E2202221222227EDF
:1000E0006200C2000000000000000000FE0042FFAD
:1000F0002A4911496149807F62491E494249824922
:1001000042FF3E0000000000100010201238D20311
:10011000563A5A42D242534B52525A425642D263F4
:1001200012081230100000000000800080008000E3
:1001300080008000800080008000800080008000BF
:100140008000C00080000000004004400440F47FB4
:10015000944A944A9C4A974A944A944A944AF47F0F
:10016000044004400040000000000000FC7E4020ED
:10017000402040204020FF3F4020402040204020A1
:100180004020FC7E00000000020842084208FE07F2
:1001900042844244FE2302180206FA01023E024053
:1001A000FE430040007800000000F87F8C108B10A8
:1001B0008810F83F400030008F00080308260840F0
:1001C0000820F81F00000000004020202010220816
:1001D00022042202AA417280E27F32002A00260015
:1001E000A20060002000000000800070FE0F1200DE
:1001F000120092FF924A924AFF4A914A914A914ACA
:1002000091FF11001000000010000C408440444198
:10021000244114410541067F0441144124414441D5
:10022000844014400C0000000000F8FF01000600AC
:100230000000F0079204920492049204F207024034
:100240000280FE7F0000000000000000005800381F
:10025000000000000000000000000000000000009E
:100260000000000000000000080208018900CEFF25
:1002700038018882F87F0880C84148367F084816D0
:10028000C82118C008400000200024222462242233
:10029000FF3F24122412241220009000102310404B
:1002A000FF3F1000100000000008FC1F4408440439
:1002B0004204420242000000FEFF0200020002046B
:1002C0000208FE0700000000000404020401C47FCD
:1002D00064009C20872084208420E43F84208420A4
:1002E000842084200420000000000000F8FF08089B
:1002F0000804080288017F004800880008010846B9
:100300000880F87F000000000000F87F8C108B1040
:100310008810F83F400030008F000803082608408E
:100320000820F81F00000000002002200220C23F29
:100330000220022002200220FE3F82208220822012
:1003400082208220022000008000804080208010D7
:10035000BE0EAA10AA20AA3FAA44AA44AA44BE4498
:100360008044804080400000080208018900CEFFE0
:10037000A80018030000F80748024802FFFF4802DF
:100380004802F8070000000000020002FC0294FA94
:10039000954A964A944AFC4A944A964A954A94FA4F
:1003A000FC0200020002000084248C245412224922
:1003B000D6840A7F00007CFF46486D2854006C3FBD
:1003C00044487C44007200008A1452122249D584A9
:1003D000097F1400F8FF17081206D001FFFFD000B4
:1003E0001003100C1004000000000018002400246A
:1003F00000180000000000000000000000000000E5
:10040000000000000000000084248C2454122249C3
:10041000D6840A7F00007CFF46486D2854006C3F5C
:1004200044487C44007200008A1452122249D58448
:10043000097F1400F8FF17081206D001FFFFD00053
:100440001003100C10040000080808080804080233
:100450000805C8043804FF7F1804680488040803EA
:100460000806080C080400008000804080208010EE
:10047000BE0EAA10AA20AA3FAA44AA44AA44BE4477
:100480008044804080400000000010401020101088
:10049000100C1003FF101008F03F12421C41D04016
:1004A000104010401070000000200860083008085C
:1004B0000818082409240A220C4188404840284092
:1004C0001C40084000400000000100010201020140
:1004D000020102410281E27F12010A0106010201CA
:1004E00000018001000100000000000000580038F9
:1004F00000000000000000000000000000000000FC
:1005000000000000000000000000FEFF024022503A
:1005100022482246A243FE4022412242225C224837
:100520000240FEFF000000002040F83F5702520248
:10053000F23F52425A82F67F0040F0431042FF7F62
:100540001022F02B007000000008420424421881A1
:10055000B660C01F00000000FE3F024002400241A2
:100560000242FE41007800000000408042404220EC
:10057000421042084206FE01420242044208421072
:100580004230426040200000000020012021101372
:100590008C0A8F425482A47F240254024C0A841293
:1005A0008033800280000000080208018900CEFF2D
:1005B00038018882F87F0880C84148367F0848168D
:1005C000C82118C00840000040004000A03F90082B
:1005D000A808A408A21F2100A2FFA400A810903020
:1005E000B01F600020000000400130012F01E4FF37
:1005F000244124310090F45F54355C15571554356F
:10060000F45F049000100000000090008C00840053
:100610008402841C8408850086408480F47F8400E2
:1006200094008C0084000000404040402042204262
:10063000504A48724442C37F44424862505A504232
:1006400020426040204000000000FEFF22025A04C9
:10065000864310489424742294151F09341554239A
:10066000946094C010400000000000000058003862
:10067000000000000000000000000000000000007A
:1006800000000000000000000000FFFF01401148D2
:10069000114691417140FF5F514091411147114214
:1006A0000140FFFF0000000040002000F07F0C0030
:1006B00003200821082109210A21FC3F08210821E3
:1006C0008C21083100200000000010000C00040004
:1006D000E43F04420542064104418440C440844052
:1006E00014780C20040000000000F87F8C108B10A0
:1006F0008810F83F400030008F00080308260840AB
:100700000820F81F0000000080008040802080103A
:10071000BE0EAA10AA20AA3FAA44AA44AA44BE44D4
:100720008044804080400000080208018900CEFF1C
:1007300038018882F87F0880C84148367F0848160B
:10074000C82118C008400000100292017200FEFF8C
:1007500091001111400830068F430480F47F84001B
:10076000040114060C1800000000100010401220B4
:1007700014101C081006F0019F00101110261040E4
:100780001020F81F10000000100810181008FF07B4
:10079000100410048400947EE422A5228622C42240
:1007A000B422A47E8400000000000030000CFF0092
:1007B000813C8940C940A9429F4CA940C9408970E9
:1007C000FF04003800100000100462040CFFE00079
:1007D000000210020CFF1745A4444444A44494446E
:1007E0000CFD0003000100000800082188314929A0
:1007F0003A250E33C861880008218C337B290A27EB
:10080000C8218C700820000000200010000800069D
:1008100080017C000800000000007E0084010006CA
:10082000001800300010000000000200F27F1220CB
:100830001220FA3F962492249224F23F1220122092
:100840001220F27F0200000040002000F87F170015
:1008500002081004100A90097008FF7FD0081009E0
:100860001006100C000400000000F87F8C108B10A4
:100870008810F83F400030008F0008030826084029
:100880000820F81F0000000000402020201022084F
:1008900022042202AA417280E27F32002A0026004E
:1008A000A20060002000000000800070FE0F120017
:1008B000120092FF924A924AFF4A914A914A914A03
:1008C00091FF11001000000010000C4084404441D2
:1008D000244114410541067F04411441244144410F
:1008E000844014400C0000000000F8FF01000600E6
:1008F0000000F0079204920492049204F20702406E
:100900000280FE7F0000000000000000F8FF0808E1
:100910000804080288017F00480088000801084692
:100920000880F87F00000000000000000058003838
:1009300000000000000000000000000000000000B7
:100940000000000000000000000002080204020293
:10095000020182004200FE7F06004200C2008201C6
:1009600002070302020000004080A04098208F1878
:100970008807F802880488180000F87F081008101B
:100980000810F83F0000000040404220CC1F00202B
:1009900004400440E55FB64AAC4AA44AA64AE55F73
:1009A00004400440004000000000100010401220ED
:1009B00014101C081006F0019F00101110261040A2
:1009C0001020F81F1000000080004000F07F1C0085
:1009D0000700E207240224022402E4070420044062
:1009E000FC3F040004000000000010000C000400A4
:1009F000E43F04420542064104418440C44084402F
:100A000014780C200400000080004000F07F1C00DF
:100A10000300F07F01000E00040000000400042029
:100A20000440FC3F0000000040404220CC1F00205A
:100A3000A244A24452425A4A2651C24F4240A240C6
:100A40001241124300400000100461FC0603E00460
:100A5000C404B404EFFF840484440030FC0F440059
:100A60004400C2FF4200000000000000FC7E402065
:100A7000402040204020FF3F402040204020402098
:100A80004020FC7E00000000020842084208FE07E9
:100A900042844244FE2302180206FA01023E02404A
:100AA000FE430040007800000000000000580038BD
:100AB0000000000000000000000000000000000036
:100AC000000000000000000000000000FC7E40204C
:100AD000402040204020FF3F402040204020402038
:100AE0004020FC7E00000000020842084208FE0789
:100AF00042844244FE2302180206FA01023E0240EA
:100B0000FE430040007800000000F87F8C108B103E
:100B10008810F83F400030008F0008030826084086
:100B20000820F81F00000000102010201010FE1FE9
:100B3000100850084000FE3F20402040FF4F104268
:100B40001044F843107000000840084008200810C6
:100B5000080C0803F9004A004C2048404840C83FB0
:100B600008000800080000000000FC0744044404DA
:100B70004404FC0710009000100310401080FF7F19
:100B8000100010001000000010000C408440444190
:100B9000244114410541067F04411441244144414C
:100BA000844014400C000000100210421081FF7FAE
:100BB000904050408240827FFE408240824082408E
:100BC000FE7F00400040000000000000F87F082188
:100BD0000821FF3F082108210821FF3F08210821A3
:100BE0000821F87F000000000000000000580038D5
:100BF00000000000000000000000000000000000F5
:100C000000000000000000000001010105010901D1
:100C1000710121010101FFFF0101410121011D01BC
:100C20000901010100010000100208018400C6FF53
:100C3000730022004000440044404480C47F4400CC
:100C40004400440040000000200020002000FE3F3F
:100C500020202020FE272022202220222022FE27C2
:100C60002030202020000000000000080008FF8441
:100C700049444922491DFF00C90049FD4902490272
:100C8000FF04000C00040000004010203E101088FB
:100C90001087F0419F4690289010922894271C407E
:100CA00010C01040100000000001804060401E4154
:100CB0001041104110411041FF7F1241104110417D
:100CC00098411061004000000000222132212E21B5
:100CD000E23F2A11729122513020DF13120C1012C0
:100CE000F02110C01040000040004000A03F9008DC
:100CF000A808A408A21F2100A2FFA400A8109030F9
:100D0000B01F6000200000000000F87F8C108B10E6
:100D10008810F83F400030008F0008030826084084
:100D20000820F81F0000000000000880888048406C
:100D30003841282209140E180C0C08169823286133
:100D400068C0484008000000000000831081B181A5
:100D500051FDB3951595099509A5B5A553A551FD67
:100D6000B0811081008300000000001800240024DE
:100D7000001800000000000000000000000000005B
:100D800000000000000000008000400130012F0141
:100D9000E47F2421241104410030FE0F12011221AE
:100DA0001241FE3F0000000080408030BE0EAA10BD
:100DB000AA20AA3FAA44BE4480400040FE472048E3
:100DC0002048104F00400000002080208410841034
:100DD0009408A404C402FFFF8401C402B40494086C
:100DE00084188430801000000000224272C22A421F
:100DF0002622E23F2A22721222120000F80F00403F
:100E00000080FF7F00000000804081208E1F0420B2
:100E10000020104050409043104110481050FF4FA8
:100E20001040104010400000408042404420CC1F41
:100E3000002008402850484889440E43CA44384896
:100E4000085008400040000000400040FF4491442A
:100E5000914491449144FF7F914491449144914441
:100E6000FF4400400040000000000000005800382F
:100E70000000000000000000000000000000000072
:100E8000000000000000000000400040022006209A
:100E90001A106210820902060206820962101A10F4
:100EA00006200060002000000804300401FFC60096
:100EB00030000000E4FF380920093F0920093049CB
:100EC0002889E47F000000000000400120811841D3
:100ED00016211011100DFF031005100910311061BB
:100EE00010C10041000100000000020002000200E9
:100EF000020002400280F27F12000A000A0006008F
:100F00000600020000000000000000180024002479
:100F100000180000000000000000000000000000B9
:100F20000000000000000000000000400020FE3132
:100F30008218820E82048200820082008202820471
:100F4000FE1900700020000000000000FE0042FFBB
:100F50002A4911496149807F62491E4942498249B3
:100F600042FF3E00000000000000020002000200FC
:100F7000020002000200FE7F22006200C201820025
:100F800002000300020000000000004000200010EA
:100F9000FE0F02002200420082010200FE1F00201C
:100FA00000200020003C0000000000400020001055
:100FB000000C0003C0003F00C2010006000C001836
:100FC000003000600020000000000208020402025D
:100FD000020182004200FE7F06004200C200820140
:100FE0000207030202000000000002000200F207F4
:100FF0001202120212021202F20702100220024032
:10100000FE3F020002000000004000400020FF21DF
:101010000110010C0103F900013F01400140FF41B3
:1010200000400078002000000000F87F8C108B103A
:101030008810F83F400030008F0008030826084061
:101040000820F81F00000000800040003000FC7FF6
:1010500007000A00A87EA822A922AE22AA22A8225E
:10106000A87E0800080000004000400040005F0229
:10107000D1075102510251225142518251425F3EE9
:101080004000400040000000000000180024002440
:101090000018000000000000000000000000000038
:1010A0000000000000000000000000400020FE31B1
:1010B0008218820E820482008200820082028204F0
:1010C000FE190070002000000002040184004400AA
:1010D000E4FF34092C0927092429244924C9E47F81
:1010E00004000400040000000880F47F570254024A
:1010F000FC5F5482F07F420AA2091E090209A2FF86
:1011000062093E090009000040004200CC7F042033
:101110000010508294433422D4121F0AD407140AB8
:10112000541234E21042000000000000FC7E402017
:10113000402040204020FF3F4020402040204020D1
:101140004020FC7E0000000000001010101010086D
:10115000100410021001D0403080FF7F10001000FA
:101160001000100010000000000204018400440080
:10117000E4FF34092C0927092429244924C9E47FE0
:10118000040004000400000008040803C800FFFF76
:10119000480088410830000CFE03020002000200F3
:1011A000FE3F00400078000080004000404220E206
:1011B0005052484A4446436244224822502A20F270
:1011C0006062C00040000000080208420881FF7F02
:1011D00088004820082010101010FF08100F121A65
:1011E0009421104010F000000000224272C22A42F6
:1011F0002622E23F2A22721222120000F80F00403B
:101200000080FF7F00000000000110018C008300BF
:1012100046FD5A4522451A4514452345424546FD9B
:101220009A00820182000000000020242C24242542
:1012300064157415AD0DA6FEE404340D24172414B2
:101240002C24246400240000000000180024002442
:101250000018000000000000000000000000000076
:101260000000000000000000AABB800040203038D1
:10127000FC0303389040684006490452F44104409E
:10128000247044008C0904300000800080408020DD
:101290008010BE0EAA10AA20AA3FAA44AA44AA44BB
:1012A000BE4480448040804000001000082004209C
:1012B000D32356125A12520A5A06F4FF5302560208
:1012C0005A127222021E020000000001C00030000B
:1012D000EC7F03202A20C82009270A200E30082E80
:1012E000E821482008200020000000000000F8FF4E
:1012F00001000602F002900292029202F20A8210AB
:10130000824F0280FE7F000000000001108110412A
:10131000102111111E091405F003100518091731C9
:10132000126118C1104100010000000420042404CF
:101330002402240224FFA449BF49644924493449B2
:10134000284926FF240020000000AABB0000E00F6F
:101350001010082008201010E00F000000001020DE
:101360001020F83F00200020000000000000703036
:101370000828082408228821703000000000301856
:101380000820882088204811300E00000000000747
:10139000C00420241024F83F002400000000F819A5
:1013A0000821882088200811080E00000000E00FA6
:1013B0001011882088201811000E0000000038004D
:1013C0000800083FC8003800080000000000701C3A
:1013D0008822082108218822701C00000000E000FB
:1013E0001031082208221011E00F0000AABB0000F3
:1013F0000000240027002A0000000000250028002B
:101400002B0000000000230026002900040404042F
:10141000040404040202020202020303030303039E
:10142000010204081020408001020408102001027B
:101430000408102000000007000201000003040659
:101440000000000000000000CB0B7413C40B11243B
:101450001FBECFEFD8E0DEBFCDBF11E0A0E0B1E00E
:10146000ECE0F0E302C005900D92AE31B107D9F780
:1014700013E0AEE1B1E001C01D92AF30B107E1F77A
:1014800014E1CCE4D4E104C02297FE010E94F517D8
:10149000C834D107C9F70E94B7140C94F9170C94FB
:1014A0000000EF92FF920F931F93CF93DF93289842
:1014B0002C9880911F02882311F42A9801C02A9A3F
:1014C0002C9A40E091E0E92EF12C90911E0280913F
:1014D0002F02995F8295880F880F807C890F942F47
:1014E000990F990F990F890F90911F02870102C0E0
:1014F000000F111F9A95E2F720E030E0C82FD0E0EE
:101500002998CE01821B930B60E870E00E94AA1715
:10151000FC01EE0FFF1FE25EFE4F80819181802370
:101520009123892B11F02B9801C02B9A299A2F5FB8
:101530003F4F2830310521F74F5F483031F6289A68
:1015400080911F028F5F80931F0280911F02803164
:1015500010F010921F028091300280FF30C0809105
:1015600023028F5F809323029091230280912402B3
:10157000891738F41092230280911E028F5F8093A6
:101580001E0280911E028034D1F48091300281FDD0
:1015900016C010921E0280912F02882319F010921B
:1015A0002F0203C081E080932F028091300282607D
:1015B00080933002809130028E7F80933002DF91E1
:1015C000CF911F910F91FF90EF900895EF92FF92AE
:1015D0000F931F93CF93DF93E0902502F0902602A4
:1015E0000091270210912802C5E0D0E0C801B701A0
:1015F0002AE030E040E050E00E94BD17FE01E75DC8
:10160000FD4F6083C801B7012AE030E040E050E0C0
:101610000E94BD17C901DA017C018D0121978FEF6E
:10162000CF3FD80719F7DF91CF911F910F91FF900E
:10163000EF900895882379F4E82FF0E0EE0FFF1F74
:10164000E25EFE4F118210828F5F8038A9F7809191
:101650003002846012C0813099F480E090E0FC0197
:10166000EE0FFF1FE25EFE4F118210820196803462
:101670009105A9F78091300280618093300208952E
:10168000823089F480E4E82FF0E0EE0FFF1FE25E85
:10169000FE4F118210828F5F8038A9F7809130024F
:1016A0008062809330020895CF93DF93582FA0E09B
:1016B000B0E0C82FD0E040C0E0912102F0912202BA
:1016C000EA0FFB1FEE0FFF1FE60FF71F9491E0914B
:1016D0002102F0912202EA0FFB1FEE0FFF1F31964D
:1016E000E60FF71FE4913E2F20E0F901E90FF11D0D
:1016F000CF01FBEB8A3A9F07A9F49A2F252F30E000
:10170000F901E90FF11DEE0FFF1FE25EFE4F11829E
:1017100010829F5F9417A0F38091300288608093BD
:1017200030020DC0FD01EC0FFD1FEE0FFF1FE25E4A
:10173000FE4F918380831196A41708F4BDCF80914A
:10174000210290912202840F911D90932202809396
:101750002102DF91CF9108958130910559F46F5F97
:101760007F4F89F487E392E060E141E12AEA0E9439
:10177000580F0895892B39F46F5F7F4F21F487E369
:1017800092E00E94490F089580E090E06FEF7FEFB4
:101790000E94AC0B089581E090E06FEF7FEF0E9414
:1017A000AC0B08950F931F93CF93DF93809130027A
:1017B00082FF89C0809130028B7F8093300220E0CD
:1017C00015C0AA0FBB1FFD01E659FD4E8491FD0116
:1017D000E559FD4EE491FE2FE0E08F01080F111D49
:1017E000A25EBE4F11961C930E932F5FA22FB0E006
:1017F000203339F740E050E060E370E03AC0D901AF
:10180000A60FB71F8881E82FF0E093E0EE0FFF1FCF
:101810009A95E1F7E20FF31FEE0FFF1FE45BFC4E1A
:101820008491E881F0E003E0EE0FFF1F0A95E1F7F5
:10183000E20FF31FEE0FFF1FE35BFC4EE491FE2F60
:10184000E0E08F01080F111DAA0FBB1FA25EBE4F63
:1018500011961C930E932F5F3F4F2830310579F678
:101860004F5F5F4F685F7F4F4630510511F440E096
:1018700021C020E030E0EA01C75DDD4FC0CFD09647
:101880009D01220F331FD097C90186599D4EFC013F
:10189000849125593D4EF9019491392F20E0890119
:1018A000080F111DAA0FBB1FA252BE4F11961C9309
:1018B0000E934F5FA42FB0E0403209F780913002C1
:1018C0008160809330028091300281FF57C0809107
:1018D00030028D7F8093300280912F02882309F49B
:1018E0003EC081E00E941A0B809130028F7E80936F
:1018F000300240E01DC0A05BBF4F9D01220F331F8F
:10190000A055B040C90186599D4EFC0184912559CE
:101910003D4EF9019491392F20E08901080F111DE6
:10192000AA0FBB1FA25EBE4F11961C930E934F5F72
:10193000A42FB0E04032F9F680E290E0FC01EE0F17
:10194000FF1FE25EFE4F11821082019680349105E6
:10195000A9F7809130028160809330020FC068EE59
:1019600073E080E090E00E945A1582E090E090934E
:1019700032028093310280E00E941A0BDF91CF91F6
:101980001F910F9108950F931F93CF93DF93809131
:101990003D0281FF55C087E392E00E94FB10803139
:1019A00009F046C08091250290912602A09127025D
:1019B000B09128020196A11DB11D8093250290933C
:1019C0002602A0932702B09328024091250250914D
:1019D0002602609127027091280280E692E02AE0B8
:1019E00030E00E94A3140E94E60AC0E0D0E008E1C3
:1019F00010E020912502309126024091270250915B
:101A00002802002E04C056954795379527950A94CD
:101A1000D2F78FE592E0BE01422F0E94E31121969A
:101A200008501040C430D10521F781E090E004C097
:101A3000813131F482E090E0909332028093310260
:101A4000DF91CF911F910F910895EF92FF920F9325
:101A50001F93CF93DF931092300210921F021092C7
:101A6000200210921E021092220210922102109265
:101A7000230210922F0286E4809324028FE592E0E5
:101A800060E070E00E94DC118F3FE1F48FE592E0AE
:101A900060E070E040E00E94E3118FE592E061E0D9
:101AA00070E040E00E94E3118FE592E062E070E0B8
:101AB00040E00E94E3118FE592E063E070E041E0D6
:101AC0000E94E311C0E0D0E0E0902502F0902602F1
:101AD00000912702109128028FE592E0BE010E943A
:101AE000DC11102F0F2DFE2CEE24E80EF11C011D31
:101AF000111DE0922502F092260200932702109316
:101B000028022196C430D105F9F680E00E941A0B14
:101B10000E94E60A109232021092310210923402B0
:101B2000109233021092360210923502DF91CF915B
:101B30001F910F91FF90EF9008958091300282FFE6
:101B400010C0809130028B7F8093300280E068E685
:101B500070E040E80E94540B8091300281608093D5
:101B600030028091300281FFE8CF809130028D7F7A
:101B7000809330028091300283FF12C068E873E1E5
:101B800080E090E00E945A150E94250D809130025D
:101B9000877F8093300210923202109231020895B2
:101BA00080912F02882329F081E00E941A0B80E0A7
:101BB00004C082E00E941A0B80E468E670E040E412
:101BC0000E94540B80913002816080933002B5CF27
:101BD00088E061E00E94C21589E061E00E94C215C0
:101BE0008AE061E00E94C2158BE061E00E94C215AC
:101BF0008CE061E00E94C2158DE061E00E94C21598
:101C00008DE060E00E9401160895CF93DF938091EC
:101C10003102909132028130910561F0813091055D
:101C200018F0029751F403C00E94C30C0AC00E942E
:101C30009D0D07C00E94D20B04C010923202109278
:101C4000310287E392E00E94990F80914D0288381B
:101C5000C1F5C0E0D0E0FE01E75DFD4F608180E6A8
:101C600092E00E9438132196C630D105A1F7C8E151
:101C7000D0E0209125023091260240912702509118
:101C800028020C2E04C056954795379527950A943F
:101C9000D2F780E692E0622F0E9438132397CC306F
:101CA000D10539F720912502309126024091270273
:101CB0005091280280E692E0622F0E943813109221
:101CC0004D02DF91CF9108950F931F9380E692E02C
:101CD00040E855E260E070E00E9467120E94E80D63
:101CE0000E94250D06E512E0C80140EB54E060E0DB
:101CF00070E00E94220FC80161E57AE02FEF3FEF0C
:101D00004FEF5FEF0E942A0F1F910F9108951F92CE
:101D10000F920FB60F9211242F933F934F935F931F
:101D20006F937F938F939F93AF93BF93EF93FF93A3
:101D3000E0915A02F0915B020995FF91EF91BF91FA
:101D4000AF919F918F917F916F915F914F913F9153
:101D50002F910F900FBE0F901F901895FC01A3E0DC
:101D6000440F551F661F771FAA95D1F7403080E0BA
:101D7000580781E0680780E0780714F481E010C01C
:101D800033E075956795579547953A95D1F740306B
:101D900080E0580781E0680780E078071CF482E063
:101DA000828339C023E075956795579547952A95A5
:101DB000D1F7403080E0580781E0680780E078077D
:101DC00014F483E0EDCF92E07595679557954795AC
:101DD0009A95D1F7403080E0580781E0680780E0AD
:101DE000780714F484E0DCCF82E075956795579509
:101DF00047958A95D1F7403080E0580781E0680721
:101E000080E0780714F485E0CBCF85E082834FEF44
:101E10005FEF60E070E08FB78383F8945183408375
:101E2000509387004093860083818FBF809181000B
:101E3000887F80938100809181009281892B80939B
:101E4000810008951092800020E1209381000E947B
:101E5000AE0E08950F931F93CF93DF93EC018B0188
:101E6000121613061406150624F4BA01A9010E94DD
:101E7000AE0E1D830C8381E080936F008091810002
:101E80009A81892B80938100DF91CF911F910F91CF
:101E90000895FC018AE091E0918380830895FC011C
:101EA0008AE091E091838083CF010E94C614089557
:101EB0001F93CF93DF93EC01142F8AE091E0998375
:101EC00088832F836C8F8FE08E8F1A821B821C82F7
:101ED0001D821E828FE592E060E670E00E94DC11B8
:101EE0008F3F11F41D8F07C08FE592E060E670E030
:101EF0000E94DC118D8F5FE7588741E049873C8D58
:101F00003A872D8D2B879FEF9C871D861E861F8607
:101F1000188A8EEF898B5A8B4B8B3C8B2D8B9E8B2B
:101F20001F8A188E198E1A8E8B8FDF91CF911F9179
:101F300008957F928F929F92AF92BF92CF92DF923D
:101F4000EF92FF920F931F93CF93DF93EC018E815B
:101F500082FFC1C0DAC080E692E00E940A139C01B1
:101F600080915E02843009F454C0853050F4813091
:101F700021F18130C8F0823081F1833009F0BDC099
:101F80003AC0873009F46FC0883038F4853009F4DE
:101F90004EC0863009F0B1C058C0883009F467C01F
:101FA000893009F0AAC067C02F37310509F0A5C0F4
:101FB000E0925E028E8181600EC02130310539F4DD
:101FC00030935D0220935C02C0925E0296C0109234
:101FD0005E028E818E7F8E8390C02C8B80915C02FE
:101FE00090915D02820F931F90935D0280935C023B
:101FF000D0925E0282C02D8B80915C0290915D0236
:10200000820F931F90935D0280935C02F0925E02B8
:1020100074C02E8B80915C0290915D02820F931FA1
:1020200090935D0280935C0270925E0266C02F8B7B
:1020300080915C0290915D02820F931F90935D02EC
:1020400080935C02B0925E0258C0288F80915C023F
:1020500090915D02820F931F90935D0280935C02CA
:10206000A0925E024AC0298F90925E0246C02A8FDB
:1020700080925E0242C010925E028E818E7F8E83BD
:102080000E9411156A837B838C839D838E898823AC
:1020900021F09D898D8D981781F59C898C8D9817DD
:1020A00061F55E81452F42604E8380915C02909184
:1020B0005D02909581959F4F198D00E02A8DB801A2
:1020C000620F711D8617970719F052615E8315C064
:1020D0004F7E4E8312C075E0772E68E0962E59E051
:1020E000852E46E0B42E37E0A32E22E0C22EEE2449
:1020F000E39493E0D92E84E0F82E80E692E00E94EB
:10210000EE12181619060CF426CFDF91CF911F910D
:102110000F91FF90EF90DF90CF90BF90AF909F9086
:102120008F907F900895AF92BF92CF92DF92EF92FF
:10213000FF920F931F93CF93DF93EC018B010E94CB
:1021400011155B016C018E8184608E83780100E043
:1021500010E010C080E692E00E94EE1218161906F8
:102160004CF480E692E00E940A13982F8E818B7FB8
:102170008E830FC00E9411156A197B098C099D0975
:102180006E157F058007910728F38E818B7F8E83E4
:1021900090E0892FDF91CF911F910F91FF90EF90E9
:1021A000DF90CF90BF90AF900895CF93DF93FC0165
:1021B000EC0128966387448735872687DE0120E077
:1021C00030E091E011968C911197280F311D9F5F9F
:1021D00011969730B9F788279927821B930B978719
:1021E000808B80E692E0BE014AE050E00E94CA1374
:1021F000DF91CF9108951F93CF93DF93EC012E8150
:10220000922F9D7F9E838D8D882309F4D0C08E8967
:10221000853009F489C0863060F4813009F462C0E9
:102220008130A0F0823009F467C0833009F0B3C078
:1022300076C0873009F486C0873008F464C08830DF
:1022400009F498C0803109F0A6C09CC093FDAFC0CE
:1022500094FDADC018EC0E9411152A813B814C8180
:102260005D81621B730B840B950B2D8D219F90015B
:102270001124285C3040442737FD4095542F6217C5
:1022800073078407950738F30E9411152A813B8153
:102290004C815D81621B730B840B950B2D8DE8ECDB
:1022A0002E9F90011124442737FD4095542F62172B
:1022B00073078407950708F07AC02F81CE0160E08C
:1022C00040E030E00E94D510CE0168EC70E00E9442
:1022D0009310882319F08F3A09F069C08E818860C5
:1022E0008E8365C094FD63C0209135023091360223
:1022F000CE0160E041E010C094FD59C02091310250
:102300003091320206C094FD52C0209133023091C8
:102310003402CE0160E042E00E94D51048C094FD36
:1023200041C0257F2E830AC094FD3CC0488D4D8F4F
:102330008FE592E060E670E00E94E31180E692E0B3
:102340006FEA33C094FD2EC010E010C0688D70E0BD
:10235000610F711D8FE592E00E94DC11282FCE01E4
:1023600060E047E030E00E94D5101F5F8F891817AA
:1023700068F31DC094FD16C06F898FE592E070E090
:10238000488DDACF94FD0EC080E692E06FEA0E949D
:102390003813888D0DC08E8184FD04C080E692E0E4
:1023A0006EEB03C080E692E06DEC0E94381380E093
:1023B000DF91CF911F910895F999FECF72BD61BD54
:1023C000F89A80B50895F999FECF1FBA72BD61BD24
:1023D00040BD0FB6F894FA9AF99A0FBE0895089581
:1023E0001F920F920FB60F9211242F933F934F938A
:1023F0008F939F93EF93FF938091C00082FD19C04C
:102400004091C60080917E02282F30E02F5F3F4F21
:102410002F73307080917F0290E02817390759F0B0
:10242000E0917E02F0E0E05AFD4F42A320937E024D
:1024300002C08091C600FF91EF919F918F914F91C3
:102440003F912F910F900FBE0F901F901895809184
:102450007E0220917F0290E0805C9F4F821B910959
:102460008F739070892B11F00E94EF1108951F92C5
:102470000F920FB60F9211242F938F939F93EF9388
:10248000FF939091800280918102981731F480919E
:10249000C1008F7D8093C10010C0E0918102F0E007
:1024A000EE53FD4F20818091810290E001968F7361
:1024B0009070809381022093C600FF91EF919F91CD
:1024C0008F912F910F900FBE0F901F901895AF9284
:1024D000BF92DF92EF92FF920F931F93CF93DF9300
:1024E000EC017A018B01DD24403081EE580780E059
:1024F000680780E0780711F0DD24D39491E0A92EDD
:10250000B12CE889F989DD2069F0C5010C8C02C085
:10251000880F991F0A94E2F7808360E079E08DE3E9
:1025200090E005C0108260E874E88EE190E0A801B8
:1025300097010E94BD1721503040404050405695B1
:1025400047953795279580E12030380720F0DD202A
:1025500011F0DD24D6CFEC85FD853083EE85FF8537
:1025600020831D8EEA89FB89408121E030E0C9018A
:10257000088C02C0880F991F0A94E2F7482B408309
:10258000EA89FB894081C901098C02C0880F991F23
:102590000A94E2F7482B4083EA89FB894081C9010C
:1025A0000A8C02C0880F991F0A94E2F7482B4083D7
:1025B000EA89FB8980810B8C02C0220F331F0A94A9
:1025C000E2F7209528232083DF91CF911F910F916F
:1025D000FF90EF90DF90BF90AF900895FC01268DA3
:1025E000878D30E0205C3F4F281B31092F733070FE
:1025F000C9010895FC01968D878D981719F42FEF66
:102600003FEF06C0878DE80FF11D82A1282F30E033
:10261000C9010895DC015E969C915E975F968C914E
:102620005F97981719F42FEF3FEF10C05F968C91CA
:102630005F97FD01E80FF11D92A15F968C915F9766
:102640008F5F8F735F968C93292F30E0C9010895B7
:10265000DC015D968C915D97882339F05096ED9161
:10266000FC915197808186FFF9CF5D961C92089569
:10267000DC0190968C919097282F30E02F5F3F4F90
:102680002F73307091968C91919790E028173907AD
:10269000C9F390968C919097FD01E80FF11DEE59CA
:1026A000FF4F608390962C9390975296ED91FC91FA
:1026B0005397208181E090E05B960C905B9702C07D
:1026C000880F991F0A94E2F7282B208381E05D96FA
:1026D0008C935D975096ED91FC9151978081806429
:1026E000808381E090E0089510926302109262026C
:1026F00088EE93E0A0E0B0E08093640290936502DE
:10270000A0936602B093670282E191E09093610228
:1027100080936002109281028091810280938002F6
:1027200010927F0280917F0280937E0285EC90E080
:1027300090936D0280936C0284EC90E090936F0212
:1027400080936E0280EC90E090937102809370020F
:1027500081EC90E0909373028093720282EC90E09F
:10276000909375028093740286EC90E090937702C8
:102770008093760284E08093780283E080937902EC
:1027800087E080937A0285E080937B0281E08093EA
:102790007C020895CF92DF92EF92FF920F931F93E6
:1027A000CF93DF937C016B018A01C0E0D0E00FC0C2
:1027B000D6016D916D01D701ED91FC910190F081F1
:1027C000E02DC7010995C80FD91F01501040011510
:1027D000110571F7CE01DF91CF911F910F91FF90FD
:1027E000EF90DF90CF900895EF92FF920F931F9399
:1027F0008C01DC01ED91FC910190F081E02D6DE008
:1028000009957C01D801ED91FC910190F081E02DBA
:10281000C8016AE009959C012E0D3F1DC9011F9159
:102820000F91FF90EF900895CF93DF93EC01611526
:10283000710519F420E030E00FC0DB010D9000209D
:10284000E9F71197A61BB70BE881F9810280F381A4
:10285000E02DAD0109959C01C901DF91CF9108954B
:102860004F925F927F928F929F92AF92BF92CF9240
:10287000DF92EF92FF920F931F93DF93CF93CDB729
:10288000DEB7A1970FB6F894DEBF0FBECDBF2C0107
:10289000742ECB01223008F42AE019A231E2C32EB3
:1028A000D12CCC0EDD1E822E9924AA24BB24672DA8
:1028B000752FA50194010E94BD1779018A01C801F5
:1028C000B701A50194010E948B17472D461B089460
:1028D000C108D1084A3014F4405D01C0495CF601DA
:1028E0004083E114F1040105110521F07E2C5F2DD8
:1028F000C801DDCFC201B6010E941414A1960FB623
:10290000F894DEBF0FBECDBFCF91DF911F910F9125
:10291000FF90EF90DF90CF90BF90AF909F908F90FF
:102920007F905F904F900895DC012115310541F4AF
:10293000ED91FC910190F081E02D642F09950895AF
:102940000E9430140895EF92FF920F931F937C0121
:102950000E9494148C01C7010E94F4139C01200F63
:10296000311FC9011F910F91FF90EF900895CF93F0
:10297000DF930E941F150E94640EC7E2D2E10E94FD
:10298000050E2097E1F30E942712F9CF0E94F2165C
:1029900008951F920F920FB60F9211242F933F9319
:1029A0008F939F93AF93BF938091060390910703FA
:1029B000A0910803B091090330910A030196A11D6B
:1029C000B11D232F2D5F2D3720F02D570196A11D0E
:1029D000B11D20930A038093060390930703A093ED
:1029E0000803B09309038091020390910303A0911F
:1029F0000403B09105030196A11DB11D809302034C
:102A000090930303A0930403B0930503BF91AF9188
:102A10009F918F913F912F910F900FBE0F901F901C
:102A200018958FB7F89420910603309107034091D1
:102A30000803509109038FBFB901CA010895789422
:102A400084B5826084BD84B5816084BD85B58260B3
:102A500085BD85B5816085BDEEE6F0E08081816051
:102A60008083E1E8F0E01082808182608083808151
:102A700081608083E0E8F0E0808181608083E1EB29
:102A8000F0E0808184608083E0EBF0E08081816011
:102A90008083EAE7F0E080818460808380818260C7
:102AA00080838081816080838081806880831092B0
:102AB000C1000895EF92FF920F931F93CF93DF937E
:102AC0007B018C013FB7F89480910203909103033E
:102AD000A0910403B091050326B5A89B05C02F3F24
:102AE00019F00196A11DB11D3FBFBA2FA92F982F34
:102AF0008827820F911DA11DB11D52E0880F991FDB
:102B0000AA1FBB1F5A95D1F7EC0130C00E948A174B
:102B10003FB7F8948091020390910303A0910403BE
:102B2000B091050326B5A89B05C02F3F19F001966B
:102B3000A11DB11D3FBFBA2FA92F982F8827820F43
:102B4000911DA11DB11D32E0880F991FAA1FBB1F47
:102B50003A95D1F78C1B9D0B885E9340B8F2089490
:102B6000E108F10801091109C851DC4FE114F10431
:102B70000105110559F6DF91CF911F910F91FF903B
:102B8000EF900895CF93DF93482F50E0CA01805E05
:102B90009B4EFC013491445F5B4EFA018491882383
:102BA00069F190E0880F991FFC01E251FC4EA5915C
:102BB000B491FC01E850FC4EC591D491662351F4C8
:102BC0002FB7F8948C91932F909589238C938881BB
:102BD00089230BC0623061F42FB7F8948C91932F46
:102BE000909589238C938881832B88832FBF06C07F
:102BF0009FB7F8948C91832B8C939FBFDF91CF91DB
:102C00000895482F50E0CA018C5C9B4EFC01249132
:102C1000CA01805E9B4EFC019491445F5B4EFA01B9
:102C20003491332309F440C0222351F1233071F051
:102C3000243028F42130A1F0223011F514C02630C0
:102C4000B1F02730C1F02430D9F404C08091800065
:102C50008F7703C0809180008F7D8093800010C0AB
:102C600084B58F7702C084B58F7D84BD09C0809103
:102C7000B0008F7703C08091B0008F7D8093B0004B
:102C8000E32FF0E0EE0FFF1FE850FC4EA591B4914A
:102C90002FB7F894662321F48C919095892302C074
:102CA0008C91892B8C932FBF08950F931F93CF93F3
:102CB000DF93BC018230910510F462E070E0E09196
:102CC0000D03F0910E0340E050E0A0E0B0E024C01E
:102CD0008081918186179707D0F08617970771F446
:102CE00082819381109729F013969C938E9312976B
:102CF0002CC090930E0380930D0327C041155105FE
:102D000019F08417950718F48D01AC01EF01DF016C
:102D1000828193819C01F9013097D1F641155105CB
:102D2000F9F0CA01861B970B8430910580F48A81E3
:102D30009B810115110521F0F8019383828304C062
:102D400090930E0380930D03FE01329645C0FE0161
:102D5000E80FF91F619371930297998388833CC0B0
:102D600080910B0390910C03892B41F48091020117
:102D70009091030190930C0380930B034091040105
:102D8000509105014115510541F44DB75EB7809151
:102D9000000190910101481B590B20910B033091C8
:102DA0000C0324173507B0F4CA01821B930B861756
:102DB000970780F0AB014E5F5F4F8417950750F087
:102DC000420F531F50930C0340930B03F90161937F
:102DD000719302C0E0E0F0E0CF01DF91CF911F914D
:102DE0000F910895CF93DF939C01009709F48FC052
:102DF000EC0122971B821A8260910D0370910E03E1
:102E00006115710581F488819981820F931F20914A
:102E10000B0330910C032817390739F5D0930C03B5
:102E2000C0930B0374C0DB0140E050E0AC17BD075A
:102E300008F1BB83AA83FE0121913191E20FF31FB8
:102E4000AE17BF0779F48D919C911197280F391F08
:102E50002E5F3F4F3983288312968D919C91139753
:102E60009B838A834115510571F4D0930E03C0935F
:102E70000D034DC012968D919C911397AD01009753
:102E800011F0DC01D3CFDA011396DC93CE931297C5
:102E9000FA0121913191E20FF31FCE17DF0769F498
:102EA00088819981280F391F2E5F3F4FFA013183A6
:102EB00020838A819B8193838283E0E0F0E0DB01C1
:102EC00012968D919C911397009719F0BC01FD010A
:102ED000F6CFAB014E5F5F4FDB018D919C91840F6C
:102EE000951F20910B0330910C032817390779F4B3
:102EF000309729F410920E0310920D0302C0138232
:102F000012824250504050930C0340930B03DF91C8
:102F1000CF9108950895629FD001739FF001829F21
:102F2000E00DF11D649FE00DF11D929FF00D839F58
:102F3000F00D749FF00D659FF00D9927729FB00DF5
:102F4000E11DF91F639FB00DE11DF91FBD01CF0108
:102F50001124089597FB092E07260AD077FD04D087
:102F60002ED006D000201AF4709561957F4F0895F9
:102F7000F6F7909581959F4F0895A1E21A2EAA1B0E
:102F8000BB1BFD010DC0AA1FBB1FEE1FFF1FA21719
:102F9000B307E407F50720F0A21BB30BE40BF50B16
:102FA000661F771F881F991F1A9469F7609570959F
:102FB000809590959B01AC01BD01CF010895AA1B9E
:102FC000BB1B51E107C0AA1FBB1FA617B70710F014
:102FD000A61BB70B881F991F5A95A9F78095909546
:102FE000BC01CD010895EE0FFF1F0590F491E02D77
:102FF000099414E1CCE4D4E104C0FE010E94F51769
:0C3000002296CE34D107C9F7F894FFCF18
:10300C0080000F03000000000000490F4F0F00006C
:0E301C0000003813CA13EE120A13FA1228131A
:00000001FF
